:020000040800F2
:1000000000800020D90600089D070008A10700080D
:10001000A5070008A9070008AD07000800000000B8
:10002000000000000000000000000000B107000810
:10003000B507000800000000B9070008BD07000868
:10004000D9070008DD070008950D00080000000032
:1000500000000000E1070008F1070008310800086F
:100060007108000800000000750800087908000801
:100070007D0800080000000081080008C108000891
:1000800001090008410900080000000045090008B6
:100090004909000800000000000000000000000006
:1000A0000000000000000000000000004D090008F2
:1000B0006D09000889090008A5090008C1090008A0
:1000C00010B5054C237833B9044B13B10448AFF392
:1000D00000800123237010BD780000200000000084
:1000E0003C13000808B5034B1BB103490348AFF3A9
:1000F000008008BD000000007C0000203C130008C8
:1001000080B500AF0121052000F046FE0121072047
:1001100000F042FE00BF80BD80B400AF00BFBD460E
:1001200080BC7047006903681B6918470069036851
:100130009B691847006903685B6918470069036891
:100140009B68184700690368DB6818470069036803
:100150001B68184708B50A4B23B10A4B13B100F0CE
:1001600029FE38B9084B23B1084B13B100F02CFE1F
:1001700018B908BDAFF30080F4E7AFF3008008BD05
:10018000B50D000800000000C90D000800000000C7
:10019000F8B50646174672B100244D1E02E0013440
:1001A000A74208D0336830461B6815F8011F9847EE
:1001B0000028F4D127463846F8BD00BF80B582B08C
:1001C00000F0E8F8022000F0F7F800F021F9012132
:1001D000102000F017FD4FF00062254B2549D96033
:1001E0009A6062B600F0E4FD4FF0000AFFF788FF66
:1001F00000260027DFF8808008F58075FFF78CFF68
:100200001E4B0BB1FFF7A6FFD8F80030002BF5D03E
:100210001B4B18CBCDE900349946174C08E094F8F5
:100220002030ABB1009BC4E9043A2034AC42E5D0A5
:10023000A268002AF9D0D4E906012369A9EB0303D7
:1002400083427AEB0103F0D3E06890470028E6D1BF
:10025000C4E90467C4E90667C4E902AA84F820A0D7
:10026000C4F824A0D8F80030013BC8F80030DCE71F
:1002700000ED00E00005FA05A0000020550100088F
:100280004002002000F0E4BE30B5054687B001A86A
:100290000C4600F0C3FCDDE90423002D08BF134623
:1002A00004FB03331949A1FB0323DB0D062B28D8DC
:1002B000DFE803F0090E13181D220400302000F0BF
:1002C00097FB07B030BD002000F092FB07B030BDB7
:1002D000082000F08DFB07B030BD102000F088FB37
:1002E00007B030BD182000F083FB07B030BD2020E0
:1002F00000F07EFB07B030BD282000F079FB07B08E
:1003000030BD382000F074FBDBE700BF893BE655C9
:1003100030B5054687B0012000F0D6FB00F0EAFBBF
:100320000128044618D001A800F078FC4FF0E02224
:10033000E02400200721019B144DA5FB03539B0CD7
:1003400003EB83035B00013B5361114B83F82340B4
:100350009061116107B030BD2946022000F0E2FB38
:10036000204600F003FC00F007FC01280446DAD127
:100370002946FFF789FF002000F016FC204600F018
:10038000EFFB4FF4807000F019FCCCE783DE1B43D9
:1003900000ED00E008B500F081FB012000F094FBC7
:1003A00000F0A8FB0128FBD1024B1868BDE808400B
:1003B000FFF7AEBF98000020124B012810B518704F
:1003C00014D0022817D000230F4C104A236013606A
:1003D00000F064FB012000F077FB00F08BFB0128AC
:1003E000FBD12068BDE81040FFF792BF064C074BD9
:1003F00020601860ECE70323034C044A236010607C
:10040000E6E700BF94000020980000209C00002038
:1004100008B5202000F0DCFB002000F0E3FBBDE885
:100420000840012000F0E8BB431E5FFA83FCBCF1EA
:10043000070F0A461ED9A0F10903D9B20A2914D917
:10044000A0F11403D9B202291ED9A0F11703D9B221
:1004500007291ED9A0F11F03D9B207290FD9A0F18E
:100460002703D9B2032919D9704701210E489940B1
:1004700000F0CCBA01210D48994000F0C7BA012123
:100480000B48994000F0C2BA01210A48994000F097
:10049000BDBA01210848994000F0B8BA01210748C7
:1004A000994000F0B3BA00BF00000B4000800A4042
:1004B00000800C4000800B4000000C4000800E408B
:1004C00080B483B000AF0346FB71FB79034AD35C71
:1004D00018460C37BD4680BC704700BFE0110008CD
:1004E0000022024BC3E90022704700BFA000002099
:1004F00008B58021006900F047FC08BD10B504462E
:100500008021206900F040FC0128F9D110BD00BF16
:1005100070B505460E468021286900F035FC01289B
:100520000446F8D12869314600F026FC204670BD0B
:1005300008B590F93230013307D0D0E90D32107888
:100540001B78C01A18BF012008BD4021006900F0C7
:100550001BFC08BD38B590F9325004466B1C04D022
:10056000D0E90E321B78D05C38BD4021006900F024
:100570000BFC012803D1206900F002FC38BD28469D
:1005800038BD00BF90F9323010B5013304460ED0AB
:10059000D0E90D310A781B78934212D0531CDBB29C
:1005A000402B08BF0023C06B805C0B7010BD402146
:1005B000006900F0E9FB012803D1206900F0E0FBAD
:1005C00010BD4FF0FF3010BD70B5194D2B78BFF343
:1005D0005B8F13F0010401D0164870BD284600F06F
:1005E0008DFC0028F8D040210122124B28465C6087
:1005F000DC61642640F60705062459610E4983F83C
:100600002420C3E90A2183F830200C4A19625A6376
:100610000B4A0C499A630C4A9E60DA630B4A1D83AD
:1006200083F8324019601A6100F074FC014870BD13
:10063000A8010020B0010020000003038802002070
:1006400089020020C4110008480200200000034075
:1006500070B5194D2B78BFF35B8F13F0010401D0F7
:10066000164870BD284600F049FC0028F8D08021CB
:100670000122124B28465C60DC61642641F61705B6
:10068000072459610E4983F82420C3E90A2183F81D
:1006900030200C4A19625A630B4A0C499A630C4A7F
:1006A0009E60DA630B4A1D8383F8324019601A6139
:1006B00000F030FC014870BDAC010020F0010020CA
:1006C00000000203CC020020CD020020C41100086B
:1006D0008C020020008003400A490B4A0B4B9A42CF
:1006E000BEBF51F8040B42F8040BF8E70849094A69
:1006F00000209142BCBF41F8040BFAE700F00EF86D
:10070000FFF75CFD4013000800000020740000208B
:100710007800002010030020FEE700BF70B5184BE2
:10072000184D5B1B002B4FEAA30606DD002455F88D
:10073000043B01349847A642F9DC134B134D5B1B75
:10074000002B4FEAA30606DD002455F8043B0134D4
:100750009847A642F9DC0E4B0E4D5B1B002B4FEA6F
:10076000A30407DD043B1D44013C55F804399847B8
:10077000002CF9D14FF00062074B9A6070BD00BFAA
:10078000640000206400002070000020640000204D
:10079000740000207000002000ED00E0704700BFF2
:1007A000FEE700BFFEE700BFFEE700BFFEE700BFB9
:1007B000704700BF704700BF704700BF10B4054CC2
:1007C000D4E9002312F10A0043F10001C4E9000159
:1007D00010BC704740020020704700BF704700BF48
:1007E000024B1B6803B11847704700BF300200205E
:1007F00010B50B4C4021204600F0C6FA01280ED15E
:100800000849094B0A781878531CDBB2402B08BF03
:1008100000239842246802D004480B70845410BD11
:1008200000000340880200208902002048020020C6
:1008300010B50B4C4021204600F0A6FA01280ED13D
:100840000849094B0A781878531CDBB2402B08BFC3
:1008500000239842246802D004480B70845410BDD1
:1008600000800340CC020020CD0200208C0200203A
:10087000704700BF00F0C2B8704700BF704700BFAC
:100880000B4A08B5936D526D13409A070BD5094B6F
:100890001B68DB0707D5084B1B6803B19847074B5C
:1008A0001B6803B198470022014B5A6508BD00BF81
:1008B0000000074000800240340200203002002087
:1008C0000B4A08B5936D526D13409A070BD5094B2F
:1008D0001B68DB0707D5084B1B6803B19847074B1C
:1008E0001B6803B198470022014B5A6508BD00BF41
:1008F00000800740008002403802002030020020C3
:100900000B4A08B5936D526D13409A070BD5094BEE
:100910001B68DB0707D5084B1B6803B19847074BDB
:100920001B6803B198470022014B5A6508BD00BF00
:1009300000000840008002403C02002030020020FD
:10094000704700BF704700BF704700BF08B5022066
:1009500000F044F8042000F041F8034A136D43F01E
:100960000603136508BD00BF00800D404FF08051A5
:10097000034B044A1B68C2F8801103B11847704743
:10098000D002002000E100E04FF00051034B044A88
:100990001B68C2F8801103B118477047D4020020C9
:1009A00000E100E04FF08041034B044A1B68C2F8AD
:1009B000801103B118477047D802002000E100E021
:1009C0004FF00041034B044A1B68C2F8801103B189
:1009D00018477047DC02002000E100E0034B1B6D6C
:1009E000034214BF01200020704700BF00800D406B
:1009F000014B1860704700BF00800140024A9369B4
:100A000043F00103936170470000054010B4084CA7
:100A10000368A04208BF23F006031AB1194310BCB3
:100A20000160704723EA010110BC0160704700BFFC
:100A300000000B4001200023144A82B0C2F8D807FE
:100A40001349019300E04AB9CA6B019B02F400020A
:100A500001330193019BB3F5C06FF4D300220D4B1A
:100A60000B490D48C96BD96821F44071D960D96828
:100A7000DA6059685A6099689A6019691A61596907
:100A80005A6199699A61D86102B070470000B04319
:100A900000800D40000002401000000808B5FFF77C
:100AA000C9FF0749074BCA6942F00062CA61DA6BA5
:100AB00042F48102DA63DA6B02F48102DA6308BD80
:100AC0000000024000800D40094B01289A6822F086
:100AD00003029A6007D0022804D19A6842F0030208
:100AE0009A60704770479A6842F001029A607047B6
:100AF00000000240002382B00949019300E04AB996
:100B00000A68019B02F0040201330193019BB3F5D3
:100B1000C06FF4D3024B1868C0F3800002B0704776
:100B20000000024030B40C4C0C4DE26822F003028D
:100B30000243E260636823F4706343EA0123636065
:100B4000D5F888302BB101220023C5F88C20C5F8D8
:100B50008C3030BC704700BF0000024000004042B3
:100B6000014BC3F88801704700004042014BC3F8B5
:100B70008800704700004042002382B00949019379
:100B800000E04AB90A68019B02F0020201330193B6
:100B9000019BB3F5C06FF4D3024B1868C0F340005B
:100BA00002B0704700000240034AD36823F0F0030C
:100BB00043EA0013D360704700000240034AD36841
:100BC00023F440730343D360704700BF000002402A
:100BD000034A536923F0330303435361704700BF53
:100BE00000000240034A536923F4706343EA002380
:100BF0005361704700000240014BC3F8B4027047D4
:100C000000004042044AD36911B11843D0617047D3
:100C100023EA0000D061704700000240534B70B5DA
:100C2000DC68534A14F0020F524908BF1146DB68D2
:100C3000DC074E4B48BF4908DA6852074B4A48BFA9
:100C40005D68D36848BFC5F30325C3F3012354BFD0
:100C50000D4605FB0115012B7CD0022B76D0002B15
:100C600071D049F640430360404B424C1A691B69FE
:100C700012F0020F3E4A14BFA6469646DC073B4BD5
:100C800048BF4FEA5E0E1A69520754BF72465A684F
:100C9000364B48BFC2F303121B6948BF02FB0EE28A
:100CA000DE0654BF134653084360304B9C6923094A
:100CB000240638D52E4C03F00703013324FA03F33E
:100CC0002A4CC360A46926072BD52A4E04F00704DA
:100CD000013426FA04F40461244C646904F0030C22
:100CE000BCF1010F2DD0BCF1020F1ED0BCF1000FE2
:100CF00008BF0A461D494969C1F3011101291BD0EA
:100D000002291CD0002908BF4FF40043174A51693B
:100D10000A0A090503D502F007020132D3408360B5
:100D200070BD144CD7E7124BCAE710492A464969EF
:100D3000C1F301110129E3D149F64043E6E7134627
:100D4000E4E77246D6E70A4B03608DE74FF40043B1
:100D5000036089E7D3681E0601D42B4683E7D36876
:100D6000C3F30213013325FA03F37CE700000240CA
:100D700000127A00002D3101C9B20160704700BF36
:100D8000006880B2704700BF83690B4214BF012026
:100D900000207047704700BF10B50C46FFF790FB6E
:100DA000211E18BF0121BDE81040FFF73DBB00BF69
:100DB000704700BF08B50348FFF7B4F9003818BF03
:100DC000012008BDE002002008B50348FFF7AAF99A
:100DD000003818BF012008BDF402002070B5FFF7ED
:100DE00037FC00264FF47A75064B074CC3E90165C2
:100DF0001C601861FFF7E8FB044BC3E901651C6048
:100E0000186170BDE002002074110008F402002097
:100E10007FB500241023CDE90234036815469E698E
:100E2000CDE900446B461268B0479DF8043003F0EA
:100E30000603062B09BF01202046009B2B6004B04F
:100E400070BD0098904214BF01200620704700003A
:100E500010B50446024B036000F0E1F8204610BDD7
:100E60004012000810B50446FFF7F2FF20460821A3
:100E700000F042F8204610BD2DE9F041DDF8188061
:100E80001F46DDE9083498450646154607D10799FF
:100E900000F0C8F818B165710020BDE8F08139464E
:100EA000304600F0BFF80028F6D00123C4F80080D7
:100EB0002571A371F0E738B515461C4600F0B2F86D
:100EC00020B10823E36006232560237138BD2DE996
:100ED000F04105460C4616461F4600F0A3F848B9F7
:100EE000032F07D82368324629462046BDE8F04143
:100EF0005B691847BDE8F081FFF7C4B90268034693
:100F0000D20705D4427802B1FFDE01205870704745
:100F100000207047012303607047000010B50446AD
:100F2000024B0360FFF794FF204610BDA01200089B
:100F300010B50446FFF7F2FF20460C21FFF7DCFF57
:100F4000204610BD2DE9F041DDF818800646904599
:100F50000F4615461C460BD0B0682A460368CDF8EC
:100F600018801E6A39462346B446BDE8F041604702
:100F7000194600F057F80028EED00620BDE8F081B1
:100F80002DE9F14F0D46DDE90A4BDDE90CA61946C6
:100F900081461746984600F045F890B1002D346020
:100FA000377109DB2C44A2450CBF06240124B4711F
:100FB000002001B0BDE8F08F0235F9D10123B371F3
:100FC000F6E7544506D15946484600F02BF808B1DB
:100FD0007771EDE7D9F808003A460368CDE90CA629
:100FE000CDE90A4BDC6929464346A44601B0BDE879
:100FF000F04F60472DE9F04107460C4615461E4666
:10100000FFF759FF48B9B8682A46036821469F6927
:101010003346BC46BDE8F0416047BDE8F08170470B
:1010200000207047814208B50ED0406803782A2B13
:101030000CD049680B782A2B08BF013100F058F812
:10104000B0FA80F0400908BD0120FCE70020FAE773
:10105000024B0146186800F003B800BF00000020F2
:1010600038B50546002940D051F8043C0C1F002B30
:10107000B8BFE41800F046F81C4A136833B963603F
:1010800014602846BDE8384000F042B8A34208D9B1
:10109000206821188B4201BF19685B68091821601C
:1010A000EDE71A465B680BB1A342FAD911685018F4
:1010B000A0420BD120680144501883421160E0D156
:1010C00018685B68014411605360DAE702D90C23A9
:1010D0002B60D6E7206821188B4201BF19685B6836
:1010E0000918216063605460CBE738BD0803002015
:1010F00010F8012B11F8013B012A28BF9A42F7D0C2
:10110000D01A7047014800F009B800BF0C03002056
:10111000014800F004B800BF0C030020704770477E
:10112000F8B500BFF8BC08BC9E467047F8B500BFD4
:10113000F8BC08BC9E4670473653747265616D00FA
:10114000A01200083811000890110008A012000831
:101150005811000840110008313448617264776109
:10116000726553657269616C000000000000000048
:101170004C1100084D010008910100083D010008D4
:101180004501000825010008350100082D0100086F
:101190004012000898110008355072696E74000002
:1011A000A0120008AC110008401100084E3752751B
:1011B0006469726F6E34554152544500000000005E
:1011C000A01100081105000891010008F1040008B1
:1011D000FD040008310500088505000855050008D4
:1011E0002A2928270203040506070811100F0E0DEF
:1011F0000C091415161D1C1A191B1E1F2021221361
:101200001225260117180000A01200081412000869
:10121000C41200084E31305F5F637878616269768E
:101220003131375F5F636C6173735F747970655FD1
:10123000696E666F4500000000000000081200089B
:10124000510E0008650E000821100008211000084A
:10125000CF0E0008110E0008B70E0008790E000826
:10126000430E0008A01200087012000808120008BF
:101270004E31305F5F637878616269763132305F1A
:101280005F73695F636C6173735F747970655F69C5
:101290006E666F4500000000000000006412000848
:1012A0001D0F0008310F0008211000082110000850
:1012B000CF0E0008110E0008F50F0008810F00087E
:1012C000450F000840120008CC120008537439740E
:1012D0007970655F696E666F0000000000000000B5
:1012E00000000000000000000000000000000000FE
:1012F00000000000000000000000000000000000EE
:1013000000000000000000000000000000000000DD
:1013100000000000000000000000000000000000CD
:1013200000000000000000000000000000000000BD
:1013300000000000000000000000000000000000AD
:101340000400002000000000FC1200081C1300082C
:10135000DC12000800000000000000000000000097
:10136000000000000000000000000000000000007D
:10137000000000000000000000000000000000006D
:10138000000000000000000000000000000000005D
:10139000000000000000000000000000000000004D
:1013A00000000000E5000008E1040008DD0D000871
:0413B000C100000870
:04000005080006D910
:00000001FF
