:020000040800F2
:1000000000800020F50D0008B90E0008BD0E0008A4
:10001000C10E0008C50E0008C90E0008000000004F
:10002000000000000000000000000000CD0E0008ED
:10003000D10E000800000000D50E0008D90E0008FF
:10004000F50E0008F90E0008B517000800000000C2
:1000500000000000FD0E00080D0F00084D0F000805
:100060008D0F000800000000910F0008950F000898
:10007000990F0008000000009D0F0008DD0F000828
:100080001D1000085D10000800000000611000084D
:1000900065100008000000000000000000000000E3
:1000A00000000000000000000000000069100008CF
:1000B00089100008A5100008C1100008DD10000814
:1000C00010B5054C237833B9044B13B10448AFF392
:1000D00000800123237010BD780000200000000084
:1000E0002427000808B5034B1BB103490348AFF3AD
:1000F000008008BD000000007C00002024270008CC
:1001000000F09EB980B500AF0121052001F07AFB17
:1001100000BF80BD80B500AF0121052001F08EFB3E
:100120004FF47A70FFF7ECFF0021052001F044FB4B
:100130004FF47A70FFF7E4FF00BF80BD00690368E9
:100140001B691847006903689B69184700690368C1
:100150005B691847006903689B6818470069036872
:10016000DB681847006903681B68184708B50A4B25
:1001700023B10A4B13B101F00DFC38B9084B23B180
:10018000084B13B101F010FC18B908BDAFF30080A3
:10019000F4E7AFF3008008BD9519000800000000E7
:1001A000A919000800000000F8B50646174672B10C
:1001B00000244D1E02E00134A74208D033683046C7
:1001C0001B6815F8011F98470028F4D127463846C8
:1001D000F8BD00BFA0EB010C0098511AC01A00FB3B
:1001E0000CFC9CFBF1FC0CEB0300704780B582B06B
:1001F00000F0E8F8022000F0F7F800F035F90121EE
:10020000102001F021F94FF00062254B2549D960FB
:100210009A6062B601F0BCFB4FF0000AFFF772FF74
:1002200000260027DFF8808008F58075FFF772FF51
:100230001E4B0BB1FFF79AFFD8F80030002BF5D01A
:100240001B4B18CBCDE900349946174C08E094F8C5
:100250002030ABB1009BC4E9043A2034AC42E5D075
:10026000A268002AF9D0D4E906012369A9EB0303A7
:1002700083427AEB0103F0D3E06890470028E6D18F
:10028000C4E90467C4E90667C4E902AA84F820A0A7
:10029000C4F824A0D8F80030013BC8F80030DCE7EF
:1002A00000ED00E00005FA05A00000206D01000847
:1002B0005803002001F0CEBC30B5054687B001A838
:1002C0000C4601F0CDF8DDE90423002D08BF1346EC
:1002D00004FB03331949A1FB0323DB0D062B28D8AC
:1002E000DFE803F0090E13181D220400302000F08F
:1002F0000DFF07B030BD002000F008FF07B030BD93
:10030000082000F003FF07B030BD102000F0FEFE13
:1003100007B030BD182000F0F9FE07B030BD202036
:1003200000F0F4FE07B030BD282000F0EFFE07B06B
:1003300030BD382000F0EAFEDBE700BF893BE65520
:1003400030B5054687B0012000F0E0FF00F0F4FF73
:100350000128044618D001A801F082F84FF0E022ED
:10036000E02400200721019B144DA5FB03539B0CA7
:1003700003EB83035B00013B5361114B83F8234084
:100380009061116107B030BD2946022000F0ECFFFA
:10039000204601F00DF801F011F801280446DAD1E9
:1003A0002946FFF789FF002001F020F8204600F0E1
:1003B000F9FF4FF4807001F023F8CCE783DE1B4394
:1003C00000ED00E008B500F08BFF012000F09EFF7B
:1003D00000F0B2FF0128FBD1024B1868BDE80840CD
:1003E000FFF7AEBF98000020124B012810B518701F
:1003F00014D0022817D000230F4C104A236013603A
:1004000000F06EFF012000F081FF00F095FF012851
:10041000FBD12068BDE81040FFF792BF064C074BA8
:1004200020601860ECE70323034C044A236010604B
:10043000E6E700BF94000020980000209C00002008
:100440004FF47A7C0CFB00F00649D1E900238018B8
:1004500043F1000CD1E90023824273EB0C03F9D382
:10046000704700BF5803002008B5202000F0D2FFDD
:10047000002000F0D9FFBDE80840012000F0DEBFF9
:10048000431E072B18D9A0F109030A2B12D9A0F19A
:100490001403022B14D9A0F11703072B0ED9A0F1D6
:1004A0001F03072B0ED92738074B03288CBF0020CA
:1004B000184670470548704705487047054870471B
:1004C000054870470548704700800E4000000B400B
:1004D00000800A4000000C4000800B4000800C406F
:1004E000431E5FFA83FCBCF1070F0A461ED9A0F138
:1004F0000903D9B20A2914D9A0F11403D9B20229E7
:100500001ED9A0F11703D9B207291ED9A0F11F03E4
:10051000D9B207290FD9A0F12703D9B2032919D9D4
:10052000704701210E48994000F092BE01210D480C
:10053000994000F08DBE01210B48994000F088BE23
:1005400001210A48994000F083BE012108489940E2
:1005500000F07EBE01210748994000F079BE00BF3F
:1005600000000B4000800A4000800C4000800B40DF
:1005700000000C4000800E4080B483B000AF034602
:10058000FB71FB79034AD35C18460C37BD4680BC2F
:10059000704700BFC0250008431EDAB2072A1DD9E4
:1005A000A0F10903DAB20A2A18D9A0F11403DAB2C9
:1005B000022A13D9A0F11703DAB2072A0ED9A0F143
:1005C0001F03DAB2072A09D92738C3B2032B9DBF0C
:1005D000012303FA00F080B2002070470120984008
:1005E00080B2704738B5431E072B04460D4629D903
:1005F000A0F109030A2B22D9A0F11403022B24D95C
:10060000A0F11703072B23D9A0F11F03072B8CBFE1
:100610004FF000504FF00070012100F015FF204610
:10062000FFF72EFF034620461C46FFF7B5FF0346A3
:10063000294620462B80BDE8384000F075BD4FF4B8
:100640008000E9E74FF40010E6E74FF40000E3E72D
:100650004FF08070E0E700BF00234FF4807C012260
:1006600000B585B001A9ADF80630ADF80830ADF899
:100670000A30ADF80CC08DF80E20FFF7B3FF05B0BF
:100680005DF804FB4FF4807300224FF0010C00B5BD
:1006900085B001A9ADF80630ADF80820ADF80A2004
:1006A000ADF80C308DF80EC0FFF79CFF05B05DF87B
:1006B00004FB00BF00B5012885B003D0A0F11203F0
:1006C000012B14D802238DF80C300123002201A93C
:1006D0008DF80E30ADF80620ADF80830ADF80A20E0
:1006E0008DF80D30FFF77EFF05B05DF804FB0023A9
:1006F0008DF80C30E9E700BF012300224FF4007CA5
:1007000000B585B001A9ADF80630ADF80820ADF808
:100710000A20ADF80CC08DF80E30FFF763FF05B06E
:100720005DF804FB0022024BC3E90022704700BFC2
:10073000A000002010B504460021806800F084FE6F
:10074000204610BDF0B504468DB0406861610D468D
:1007500000F034FF01A800F083FE4CF250336269D0
:1007600060689A4240D8254F06AE3968033100F0E0
:10077000E3FF304600F074FE01233968069A8B408F
:10078000DBB2B2FBF3F3DB08B3FBF5F300251C4A45
:100790003146A2FB0362013BC2F3CF3213449BB24A
:1007A00023826068E281ADF81C30ADF81A20ADF804
:1007B0001E50ADF82050ADF82250ADF82450ADF8E1
:1007C0002650ADF82850ADF82A50ADF82C50ADF8B1
:1007D0002E5000F015FF01220221606800F0A2FFF8
:1007E00063685D650DB0F0BD002106AE00F0A4FFAA
:1007F000304600F035FE069BC6E700BF9C00002097
:100800000180008042698A4200D001B97047FFF739
:1008100099BF00BF2DE9F0410C4694B00DF12008BE
:10082000404600F00BFD2046FFF7B6FE012540F2E2
:1008300001130BAEADF820003046ADF828308DF82E
:1008400022508DF82A5000F0F9FC2046FFF7A4FE54
:100850004FF481730EAFADF82C003846ADF834304C
:100860008DF82E508DF8365000F0E8FC2046FFF74A
:1008700093FE40F203138DF83A508DF84250ADF8D4
:100880004030ADF838000DF1100C0A9B97E80700D6
:100890008CE8070001AD96E8070085E807000093A3
:1008A000214698E80C0011A801F038F8204611A95B
:1008B000FFF798FE14B0BDE8F08100BF2DE9F047C6
:1008C0008EB0054601A81F460C4616469DF858A056
:1008D0009DF85C8000F0BEFF9DF80430002B5DD0D9
:1008E000BE4268D2002E5CD008A8BDF8084000F0D7
:1008F000D5FE0023ADF822304FF44063686808A9A4
:10090000ADF82040ADF82A3000F0A2FEB8F1000F9B
:1009100021D003A800F0FAFE00230222ADF80E3029
:100920000123ADF81020ADF81230BAF1000F0FD04E
:1009300002220123686803A9ADF80C40ADF8162027
:10094000ADF8183000F0BCFE20460EB0BDE8F087D0
:10095000ADF81430ECE7288A01F026FB80463046DB
:10096000894601F021FB0B4602464946404601F00C
:1009700095FB0246384616460F4601F015FB024627
:100980000B463046394601F0B3FC01F099FD0246B2
:100990002146686892B200F08FFEBAE74FF0FF3050
:1009A000D3E72046FFF7A8FE20463146FFF798FD23
:1009B0004FF0FF30C9E72046FFF79EFE2046012199
:1009C000FFF78EFD4FF0FF30BFE700BFF0B583B0FB
:1009D000044617461E460D46FFF71CFF002033460F
:1009E0003A462946CDE900002046FFF767FF01217E
:1009F000606800F023FE94F90C30002B07DB012225
:100A000003F01F0003495B09824041F8232003B033
:100A1000F0BD00BF00E100E000B583B001466846CC
:100A200000F018FF9DF8000003B05DF804FB00BF64
:100A300070B5164D2B78BFF35B8F13F0010401D016
:100A4000134870BD284601F04DF80028F8D00A225E
:100A50000E234FF480400E4E012186F850200D4A9F
:100A6000337372600C4B0D4AB0601A607461746528
:100A7000347000F0E9FC0A4A0A49304600F0B8FF39
:100A8000284601F03BF8024870BD00BFA8010020D5
:100A9000B40100200000074048030020A90A000814
:100AA000000000203507000810B5FFF7C1FF436DB7
:100AB00013B1BDE81040184710BD00BF70B5164D0A
:100AC0002B78BFF35B8F13F0010401D0134870BD86
:100AD000284601F007F80028F8D00F230F4E012117
:100AE0004FF4004033730B230D4A746174657260D8
:100AF0000C4C0D4A86F850303170B060146000F034
:100B0000A3FC0A4A0A49304600F072FF284600F06A
:100B1000F5FF024870BD00BFAC0100200C020020B0
:100B200000800740350B00084C0300200000002027
:100B30003507000810B5FFF7C1FF436D13B1BDE8DD
:100B40001040184710BD00BF70B5164D2B78BFF38D
:100B50005B8F13F0010401D0134870BD284600F0EC
:100B6000C1FF0028F8D002224FF4803010230C215E
:100B70000D4E32700D4A3373C6E901200C4B0D4AFD
:100B800086F8501001211A607461746500F05CFCF5
:100B9000094A0A49304600F02BFF284600F0AEFF14
:100BA000014870BDB0010020640200200000084030
:100BB00050030020C10B000800000020350700088A
:100BC00010B5FFF7C1FF436D13B1BDE810401847E2
:100BD00010BD00BF00B583B00146684600F03AFE84
:100BE0009DF90330012B06D0022B09D003B05DF82C
:100BF00004EBFFF71DBF03B05DF804EBFFF75EBF2A
:100C000003B05DF804EBFFF79FBF00BF08B580217C
:100C1000006900F0C9FD08BD10B5044680212069B7
:100C200000F0C2FD0128F9D110BD00BF70B5054626
:100C30000E468021286900F0B7FD01280446F8D14E
:100C40002869314600F0A8FD204670BD08B590F92E
:100C50003230013307D0D0E90D3210781B78C01A3A
:100C600018BF012008BD4021006900F09DFD08BDAE
:100C700038B590F9325004466B1C04D0D0E90E32DE
:100C80001B78D05C38BD4021006900F08DFD012843
:100C900003D1206900F084FD38BD284638BD00BF6F
:100CA00090F9323010B5013304460ED0D0E90D3141
:100CB0000A781B78934212D0531CDBB2402B08BF3A
:100CC0000023C06B805C0B7010BD4021006900F0F8
:100CD0006BFD012803D1206900F062FD10BD4FF0CB
:100CE000FF3010BD70B5194D2B78BFF35B8F13F03B
:100CF000010401D0164870BD284600F0F3FE00281C
:100D0000F8D040210122124B28465C60DC61642649
:100D100040F60705062459610E4983F82420C3E9EB
:100D20000A2183F830200C4A19625A630B4A0C4995
:100D30009A630C4A9E60DA630B4A1D8383F8324043
:100D400019601A6100F0DAFE014870BDBC02002093
:100D5000C402002000000303A0030020A103002020
:100D6000A4250008600300200000034070B5194D61
:100D70002B78BFF35B8F13F0010401D0164870BDD0
:100D8000284600F0AFFE0028F8D080210122124B47
:100D900028465C60DC61642641F61705072459612A
:100DA0000E4983F82420C3E90A2183F830200C4A35
:100DB00019625A630B4A0C499A630C4A9E60DA63C3
:100DC0000B4A1D8383F8324019601A6100F096FEC9
:100DD000014870BDC002002004030020000002038F
:100DE000E4030020E5030020A4250008A40300205C
:100DF000008003400A490B4A0B4B9A42BEBF51F890
:100E0000040B42F8040BF8E70849094A0020914214
:100E1000BCBF41F8040BFAE700F00EF8FFF7E6F963
:100E2000282700080000002078000020780000201B
:100E300028040020FEE700BF70B5184B184D5B1B5F
:100E4000002B4FEAA30606DD002455F8043B0134CD
:100E50009847A642F9DC134B134D5B1B002B4FEA5E
:100E6000A30606DD002455F8043B01349847A6424A
:100E7000F9DC0E4B0E4D5B1B002B4FEAA30407DD84
:100E8000043B1D44013C55F804399847002CF9D126
:100E90004FF00062074B9A6070BD00BF68000020F1
:100EA0006800002074000020680000207800002006
:100EB0007400002000ED00E0704700BFFEE700BFB7
:100EC000FEE700BFFEE700BFFEE700BF704700BFC0
:100ED000704700BF704700BF10B4054CD4E9002331
:100EE00012F10A0043F10001C4E9000110BC70478F
:100EF00058030020704700BF704700BF024B1B68BB
:100F000003B11847704700BF4403002010B50B4CD5
:100F10004021204600F048FC01280ED10849094B29
:100F20000A781878531CDBB2402B08BF0023984284
:100F3000246802D004480B70845410BD00000340A4
:100F4000A0030020A10300206003002010B50B4C7B
:100F50004021204600F028FC01280ED10849094B09
:100F60000A781878531CDBB2402B08BF0023984244
:100F7000246802D004480B70845410BD00800340E4
:100F8000E4030020E5030020A4030020704700BF15
:100F900000F0C2B8704700BF704700BF0B4A08B5E9
:100FA000936D526D13409A070BD5094B1B68DB07F5
:100FB00007D5084B1B6803B19847074B1B6803B163
:100FC00098470022014B5A6508BD00BF000007404A
:100FD0000080024048030020440300200B4A08B56B
:100FE000936D526D13409A070BD5094B1B68DB07B5
:100FF00007D5084B1B6803B19847074B1B6803B123
:1010000098470022014B5A6508BD00BF0080074089
:10101000008002404C030020440300200B4A08B526
:10102000936D526D13409A070BD5094B1B68DB0774
:1010300007D5084B1B6803B19847074B1B6803B1E2
:1010400098470022014B5A6508BD00BF00000840C8
:10105000008002405003002044030020704700BF7E
:10106000704700BF704700BF08B5022000F044F889
:10107000042000F041F8034A136D43F006031365A2
:1010800008BD00BF00800D404FF08051034B044A63
:101090001B68C2F8801103B118477047E8030020AD
:1010A00000E100E04FF00051034B044A1B68C2F816
:1010B000801103B118477047EC03002000E100E005
:1010C0004FF08041034B044A1B68C2F8801103B102
:1010D00018477047F003002000E100E04FF00041A6
:1010E000034B044A1B68C2F8801103B118477047CC
:1010F000F403002000E100E0034B1B6D034214BF2A
:1011000001200020704700BF00800D40014B186097
:10111000704700BF00800140024A936943F0010319
:1011200093617047000005402DE9F04F42680C883C
:1011300087B086680590D0F80CE002920769426992
:101140008569C069002C54D04FF001184FF0030A94
:101150004FF0010C00230194019CE4073DD5029C53
:1011600027EA080724EA0C0925EA0A040D7922EA8D
:1011700008029D403D4303958D7991F807B09D404D
:101180002A4304928A780BFA03FB9A4042EA090741
:101190004D7A91F8089020EA0C008A7A4BEA000018
:1011A0004FEA430B09FA0BF926EA0A06029705FAF9
:1011B0000BF5CF789A402EEA0C0E49EA0606254335
:1011C00003F11009039C42EA0E0E07FA09F74A7967
:1011D0002743049C02FA09F22243019C4FEA4C0C7B
:1011E00064084FEA8A0A4FEA480803F101030194B0
:1011F000B2D1114B059999420CD0059B02995960C7
:101200009E60C3F80CE01F615A619D61D86107B010
:10121000BDE8F08F029B26F0060623F0060302933A
:1012200020F0060318462EF0060E27F0060722F0DF
:10123000060225F00605E0E700000B4000234FF60C
:10124000FF72438002808380C38003818372704772
:1012500010B4084C0368A04208BF23F006031AB17B
:10126000194310BC0160704723EA010110BC016002
:10127000704700BF00000B4001200023144A82B0D9
:10128000C2F8D8071349019300E04AB9CA6B019B21
:1012900002F4000201330193019BB3F5C06FF4D354
:1012A00000220D4B0B490D48C96BD96821F44071E0
:1012B000D960D968DA6059685A6099689A60196982
:1012C0001A6159695A6199699A61D86102B0704787
:1012D0000000B04300800D400000024010000008F4
:1012E00008B5FFF7C9FF0749074BCA6942F000621A
:1012F000CA61DA6B42F48102DA63DA6B02F48102CA
:10130000DA6308BD0000024000800D40094B01284F
:101310009A6822F003029A6007D0022804D19A68E2
:1013200042F003029A60704770479A6842F00102E7
:101330009A60704700000240002382B0094901937F
:1013400000E04AB90A68019B02F0040201330193EC
:10135000019BB3F5C06FF4D3024B1868C0F3800053
:1013600002B070470000024030B40C4C0C4DE268F3
:1013700022F003020243E260636823F4706343EAED
:1013800001236360D5F888302BB101220023C5F812
:101390008C20C5F88C3030BC704700BF0000024084
:1013A00000004042014BC3F88801704700004042F2
:1013B000014BC3F88800704700004042002382B010
:1013C0000949019300E04AB90A68019B02F0020250
:1013D00001330193019BB3F5C06FF4D3024B18683E
:1013E000C0F3400002B0704700000240034AD368D7
:1013F00023F0F00343EA0013D3607047000002407B
:10140000034AD36823F440730343D360704700BF9B
:1014100000000240034A536923F03303034353613E
:10142000704700BF00000240034A536923F4706311
:1014300043EA00235361704700000240014BC3F8A8
:10144000B402704700004042044AD36911B1184306
:10145000D061704723EA0000D0617047000002406D
:10146000534B70B5DC68534A14F0020F524908BF61
:101470001146DB68DC074E4B48BF4908DA68520763
:101480004B4A48BF5D68D36848BFC5F30325C3F323
:10149000012354BF0D4605FB0115012B7CD0022B07
:1014A00076D0002B71D049F640430360404B424C4C
:1014B0001A691B6912F0020F3E4A14BFA6469646EF
:1014C000DC073B4B48BF4FEA5E0E1A69520754BF18
:1014D00072465A68364B48BFC2F303121B6948BFB5
:1014E00002FB0EE2DE0654BF134653084360304B46
:1014F0009C692309240638D52E4C03F007030133D9
:1015000024FA03F32A4CC360A46926072BD52A4E7C
:1015100004F00704013426FA04F40461244C6469DD
:1015200004F0030CBCF1010F2DD0BCF1020F1ED052
:10153000BCF1000F08BF0A461D494969C1F30111FA
:1015400001291BD002291CD0002908BF4FF40043F9
:10155000174A51690A0A090503D502F00702013248
:10156000D340836070BD144CD7E7124BCAE71049D3
:101570002A464969C1F301110129E3D149F64043E3
:10158000E6E71346E4E77246D6E70A4B03608DE7C9
:101590004FF40043036089E7D3681E0601D42B464D
:1015A00083E7D368C3F30213013325FA03F37CE71F
:1015B0000000024000127A00002D31010023C360B8
:1015C000036043608360036243628362C3620363B8
:1015D00043638363C363036643668366C3660361D1
:1015E00043618361C361036743678367C3670364C0
:1015F00043648364C364036543658365C36570475F
:10160000CB8810B40C894A8923448C891344B1F8DF
:1016100010C04A8A23440C8802EB0C12B1F80EC0A9
:1016200004604C88634444608C888460C3608B8A07
:10163000C98A13440B4410BC03657047C36819B1D1
:1016400043F00103C360704723F00103C360704798
:10165000B1F806C04B880A896344B1F80AC0134444
:101660008A896344B1F80EC003EB82130A8A63448B
:1016700013448A880AB103F500530A8800F1200C4C
:101680004CF822304B8AB1F816C0898A634401B104
:101690000433603040F82230704700BF00230380DD
:1016A00043808380C380038143818381C38103821C
:1016B00043828382C3827047103040F821207047F4
:1016C0008B88B1F802C0CA889B0003EB0C13B1F8F9
:1016D00008C013444A8903EB0C3303EB82238A8945
:1016E00000B503EB0223B1F80EE00A8AB1F800C09E
:1016F000498A02EB0E220A4400F14001303040F8E2
:101700002C3041F82C205DF804FB00BF00234380FF
:101710008380C380038143818381C38103824382A9
:10172000704700BF836D12B10B438365704723EA96
:1017300001038365704700BF134A144B90425B6AF4
:1017400011D0134A904205D0124A904213D00F4A4A
:101750005362704723F47F430C4A43EA012343F06A
:1017600000735362704723F0FF03084A0B4343F0B2
:1017700080735362704723F47F0242EA0143034AB5
:1017800043F080635362704700000740000002404E
:101790000080074000000840C9B20160704700BFE8
:1017A000006880B2704700BF83690B4214BF0120FC
:1017B00000207047704700BFF0B583B00D46FEF7BC
:1017C000DBFE0446FFF728F908B903B0F0BD204658
:1017D000FFF700FA4FF4F57106464FF6FF77FFF773
:1017E00011F8002328461946FF220097FEF7F2FC65
:1017F00002463B462146304692B203B0BDE8F04077
:10180000FFF7E4B810B50C46FEF7B6FE032C13D86C
:10181000DFE804F00E0A0602BDE81040FEF74ABFFA
:10182000BDE81040FEF72EBFBDE81040FEF764BFD4
:10183000BDE81040FEF710BF10BD00BF10B50C464C
:10184000FEF79AFE211E18BF0121BDE81040FEF7E9
:1018500047BE00BF03464FF0010C2F4A00B5106889
:10186000B2F804E08A1E1860A3F804E0597083F807
:1018700000C0242A14D8DFE802F026263B3B4B1395
:10188000132E2E1313131D1D4747131313132E2648
:10189000263F3F131313134343323213131D1D000E
:1018A0000020FF214FF6FF721870D97018469A80F9
:1018B0005DF804FB0A210222997002211846D970B2
:1018C0009A805DF804FB00210A46598092B21846BE
:1018D0009A805DF804FB082100229970EDE706214B
:1018E0000222997001211846D9709A805DF804FB94
:1018F00001210A465980E9E7092101229970DCE7B4
:10190000042100229970EDE70B2103229970D4E79E
:1019100002210A465980D9E7E825000882B0023939
:101920008DE80C000346242928D8DFE801F01313C2
:10193000131313272713132727271D1D1D1D2727C3
:1019400027271327271D1D2727272713131313279F
:10195000271D1D000DF10C0CBCE8070002B018603B
:10196000596018469A6070470DF1180CBCE80700E2
:1019700002B01860596018469A607047EC4602B091
:10198000BCE807001860596018469A60704700BFAD
:10199000704700BF08B50348FEF7D0FB003818BFFA
:1019A000012008BDF803002008B50348FEF7C6FB78
:1019B000003818BF012008BD0C04002070B5FFF7E7
:1019C000D5F900264FF47A75064B074CC3E901653B
:1019D0001C601861FFF786F9044BC3E901651C60C0
:1019E000186170BDF8030020542500080C04002085
:1019F0000B460146184600F01FB97FB5002410239E
:101A0000CDE90234036815469E69CDE900446B4672
:101A10001268B0479DF8043003F00603062B09BF97
:101A200001202046009B2B6004B070BD00989042BE
:101A300014BF01200620704710B50446024B036016
:101A400000F0E1F8204610BD2826000810B5044635
:101A5000FFF7F2FF2046082100F042F8204610BDB3
:101A60002DE9F041DDF818801F46DDE9083498457E
:101A70000646154607D1079900F0C8F818B16571F8
:101A80000020BDE8F0813946304600F0BFF800285C
:101A9000F6D00123C4F800802571A371F0E738B5B2
:101AA00015461C4600F0B2F820B10823E360062377
:101AB0002560237138BD2DE9F04105460C461646D8
:101AC0001F4600F0A3F848B9032F07D82368324611
:101AD00029462046BDE8F0415B691847BDE8F08122
:101AE000FEF7E8BB02680346D20705D4427802B18C
:101AF000FFDE01205870704700207047012303600B
:101B00007047000010B50446024B0360FFF794FFD6
:101B1000204610BD8826000810B50446FFF7F2FFE6
:101B200020460C21FFF7DCFF204610BD2DE9F041D7
:101B3000DDF81880064690450F4615461C460BD02A
:101B4000B0682A460368CDF818801E6A39462346D5
:101B5000B446BDE8F0416047194600F057F8002848
:101B6000EED00620BDE8F0812DE9F14F0D46DDE90C
:101B70000A4BDDE90CA6194681461746984600F047
:101B800045F890B1002D3460377109DB2C44A24533
:101B90000CBF06240124B471002001B0BDE8F08F11
:101BA0000235F9D10123B371F6E7544506D1594600
:101BB000484600F02BF808B17771EDE7D9F8080036
:101BC0003A460368CDE90CA6CDE90A4BDC69294603
:101BD0004346A44601B0BDE8F04F60472DE9F0410F
:101BE00007460C4615461E46FFF759FF48B9B86828
:101BF0002A46036821469F693346BC46BDE8F0414A
:101C00006047BDE8F081704700207047814208B509
:101C10000ED0406803782A2B0CD049680B782A2B09
:101C200008BF013100F066F8B0FA80F0400908BD45
:101C30000120FCE70020FAE710B5044604481346EB
:101C400020B10A4602202146AFF3008010BD00BF3C
:101C500000000000024B0146186800F003B800BF06
:101C60000400002038B50546002940D051F8043C56
:101C70000C1F002BB8BFE41800F046F81C4A13688C
:101C800033B9636014602846BDE8384000F042B8BC
:101C9000A34208D9206821188B4201BF19685B68EC
:101CA00009182160EDE71A465B680BB1A342FAD927
:101CB00011685018A0420BD120680144501883428B
:101CC0001160E0D118685B68014411605360DAE785
:101CD00002D90C232B60D6E7206821188B4201BF64
:101CE00019685B680918216063605460CBE738BDF0
:101CF0002004002010F8012B11F8013B012A28BF15
:101D00009A42F7D0D01A7047014800F009B800BFD6
:101D100024040020014800F004B800BF240400207F
:101D20007047704781F0004102E000BF83F000433C
:101D300030B54FEA41044FEA430594EA050F08BF66
:101D400090EA020F1FBF54EA000C55EA020C7FEA2A
:101D5000645C7FEA655C00F0E2804FEA5454D4EBA7
:101D60005555B8BF6D420CDD2C4480EA020281EA71
:101D7000030382EA000083EA010180EA020281EAA9
:101D80000303362D88BF30BD11F0004F4FEA0131FB
:101D90004FF4801C4CEA113102D0404261EB41010A
:101DA00013F0004F4FEA03334CEA133302D0524290
:101DB00063EB430394EA050F00F0A780A4F101044C
:101DC000D5F1200E0DDB02FA0EFC22FA05F2801886
:101DD00041F1000103FA0EF2801843FA05F359416C
:101DE0000EE0A5F120050EF1200E012A03FA0EFCEB
:101DF00028BF4CF0020C43FA05F3C01851EBE37115
:101E000001F0004507D54FF0000EDCF1000C7EEB31
:101E100000006EEB0101B1F5801F1BD3B1F5001F6F
:101E20000CD349085FEA30004FEA3C0C04F101048E
:101E30004FEA445212F5800F80F09A80BCF1004FB7
:101E400008BF5FEA500C50F1000041EB045141EA39
:101E5000050130BD5FEA4C0C404141EB0101013C02
:101E600028BFB1F5801FE9D291F0000F04BF0146F1
:101E70000020B1FA81F308BF2033A3F10B03B3F1C3
:101E800020020CDA0C3208DD02F1140CC2F10C0253
:101E900001FA0CF021FA02F10CE002F11402D8BFB1
:101EA000C2F1200C01FA02F120FA0CFCDCBF41EA7D
:101EB0000C019040E41AA2BF01EB0451294330BD4C
:101EC0006FEA04041F3C1CDA0C340EDC04F1140429
:101ED000C4F1200220FA04F001FA02F340EA030000
:101EE00021FA04F345EA030130BDC4F10C04C4F146
:101EF000200220FA02F001FA04F340EA0300294626
:101F000030BD21FA04F0294630BD94F0000F83F46F
:101F1000801306BF81F480110134013D4EE77FEA52
:101F2000645C18BF7FEA655C29D094EA050F08BF9E
:101F300090EA020F05D054EA000C04BF194610467F
:101F400030BD91EA030F1EBF0021002030BD5FEAC3
:101F5000545C05D14000494128BF41F0004130BDEB
:101F600014F580043CBF01F5801130BD01F000453F
:101F700045F0FE4141F470014FF0000030BD7FEAB2
:101F8000645C1ABF194610467FEA655C1CBF0B46AD
:101F9000024650EA013406BF52EA033591EA030FC4
:101FA00041F4002130BD00BF90F0000F04BF0021BC
:101FB000704730B54FF4806404F132044FF00005EF
:101FC0004FF0000150E700BF90F0000F04BF002168
:101FD000704730B54FF4806404F1320410F00045CE
:101FE00048BF40424FF000013EE700BF42004FEAC9
:101FF000E2014FEA31014FEA02701FBF12F07F4346
:1020000093F07F4F81F06051704732F07F4208BFFC
:10201000704793F07F4F04BF41F40021704730B503
:102020004FF4607401F0004521F000411CE700BF4F
:1020300050EA010208BF704730B54FF000050AE0D2
:1020400050EA010208BF704730B511F0004502D5D3
:10205000404261EB41014FF4806404F132045FEAD5
:10206000915C3FF4D8AE4FF003025FEADC0C18BF7E
:1020700003325FEADC0C18BF033202EBDC02C2F170
:10208000200300FA03FC20FA02F001FA03FE40EA02
:102090000E0021FA02F11444BDE600BF70B54FF006
:1020A000FF0C4CF4E06C1CEA11541DBF1CEA1355E4
:1020B00094EA0C0F95EA0C0F00F0DEF82C4481EA4C
:1020C000030621EA4C5123EA4C5350EA013518BF6C
:1020D00052EA033541F4801143F4801338D0A0FB59
:1020E00002CE4FF00005E1FB02E506F00042E0FB06
:1020F00003E54FF00006E1FB03569CF0000F18BF0C
:102100004EF0010EA4F1FF04B6F5007F64F54074B3
:1021100004D25FEA4E0E6D4146EB060642EAC62146
:1021200041EA55514FEAC52040EA5E504FEACE2EB3
:10213000B4F1FD0C88BFBCF5E06F1ED8BEF1004FB6
:1021400008BF5FEA500E50F1000041EB045170BD32
:1021500006F0004646EA010140EA020081EA030176
:10216000B4EB5C04C2BFD4EB0C0541EA045170BD72
:1021700041F480114FF0000E013C00F3AB8014F1EC
:10218000360FDEBF002001F0004170BDC4F1000435
:10219000203C35DA0C341BDC04F11404C4F12005B6
:1021A00000FA05F320FA04F001FA05F240EA020011
:1021B00001F0004221F0004110EBD37021FA04F647
:1021C00042EB06015EEA430E08BF20EAD37070BD01
:1021D000C4F10C04C4F1200500FA04F320FA05F060
:1021E00001FA04F240EA020001F0004110EBD37062
:1021F00041F100015EEA430E08BF20EAD37070BDD2
:10220000C4F1200500FA05F24EEA020E20FA04F3AA
:1022100001FA05F243EA020321FA04F001F0004159
:1022200021FA04F220EA020000EBD3705EEA430ECA
:1022300008BF20EAD37070BD94F0000F0FD101F0F9
:102240000046400041EB010111F4801F08BF013C32
:10225000F7D041EA060195F0000F18BF704703F070
:102260000046520043EB030313F4801F08BF013DF7
:10227000F7D043EA0603704794EA0C0F0CEA1355B3
:1022800018BF95EA0C0F0CD050EA410618BF52EA6D
:102290004306D1D181EA030101F000414FF0000073
:1022A00070BD50EA410606BF1046194652EA430681
:1022B00019D094EA0C0F02D150EA013613D195EAF5
:1022C0000C0F05D152EA03361CBF104619460AD13D
:1022D00081EA030101F0004141F0FE4141F4700147
:1022E0004FF0000070BD41F0FE4141F4780170BD37
:1022F00070B54FF0FF0C4CF4E06C1CEA11541DBF9C
:102300001CEA135594EA0C0F95EA0C0F00F0A7F89D
:10231000A4EB050481EA030E52EA03354FEA0131CA
:1023200000F088804FEA03334FF0805545EA1313DD
:1023300043EA12634FEA022245EA111545EA1065A5
:102340004FEA00260EF000419D4208BF964244F13C
:10235000FD0404F5407402D25B084FEA3202B61A5B
:1023600065EB03055B084FEA32024FF480104FF42F
:10237000002CB6EB020E75EB030E22BFB61A7546A3
:1023800040EA0C005B084FEA3202B6EB020E75EB36
:10239000030E22BFB61A754640EA5C005B084FEA9E
:1023A0003202B6EB020E75EB030E22BFB61A75466B
:1023B00040EA9C005B084FEA3202B6EB020E75EB76
:1023C000030E22BFB61A754640EADC0055EA060E37
:1023D00018D04FEA051545EA16754FEA06164FEA7A
:1023E000C30343EA52734FEAC2025FEA1C1CC0D126
:1023F00011F4801F0BD141EA00014FF000004FF0B3
:10240000004CB6E711F4801F04BF01430020B4F173
:10241000FD0C88BFBCF5E06F3FF6AFAEB5EB030C2B
:1024200004BFB6EB020C5FEA500C50F1000041EB28
:10243000045170BD0EF0004E4EEA113114EB5C04F5
:10244000C2BFD4EB0C0541EA045170BD41F48011C8
:102450004FF0000E013C90E645EA060E8DE60CEAD0
:10246000135594EA0C0F08BF95EA0C0F3FF43BAFED
:1024700094EA0C0F0AD150EA01347FF434AF95EAA4
:102480000C0F7FF425AF104619462CE795EA0C0F88
:1024900006D152EA03353FF4FDAE1046194622E755
:1024A00050EA410618BF52EA43067FF4C5AE50EA2F
:1024B00041047FF40DAF52EA43057FF4EBAE12E71F
:1024C0004A0011D212F5001211D20DD56FF47873B3
:1024D000B3EB62520ED44FEAC12343F0004343EA08
:1024E000505323FA02F070474FF00000704750EA53
:1024F000013002D14FF0FF3070474FF000007047BD
:10250000F8B500BFF8BC08BC9E467047F8B500BFE0
:10251000F8BC08BC9E4670473653747265616D0006
:10252000882600081825000870250008882600085D
:10253000382500082025000831344861726477612D
:10254000726553657269616C000000000000000054
:102550002C25000865010008A901000855010008A4
:102560005D0100083D0100084D010008450100081B
:102570002826000878250008355072696E7400001E
:10258000882600088C250008202500084E37527543
:102590006469726F6E34554152544500000000006A
:1025A000802500082D0C0008A90100080D0C00086A
:1025B000190C00084D0C0008A10C0008710C000853
:1025C0002A2928270203040506070811100F0E0DFB
:1025D0000C091415161D1C1A191B1E1F202122136D
:1025E00012252601171800000000FFFF0000000060
:1025F00088260008FC250008AC2600084E31305F14
:102600005F637878616269763131375F5F636C61EF
:1026100073735F747970655F696E666F4500000063
:1026200000000000F0250008391A00084D1A0008C3
:10263000091C0008091C0008B71A0008FB1900084B
:102640009F1A0008611A00082D1A00088826000841
:1026500058260008F02500084E31305F5F63787817
:10266000616269763132305F5F73695F636C617399
:10267000735F747970655F696E666F450000000076
:10268000000000004C260008051B0008191B00086C
:10269000091C0008091C0008B71A0008FB190008EB
:1026A000DD1B0008691B00082D1B000828260008F8
:1026B000B4260008537439747970655F696E666F6B
:1026C000000000000000000000000000000000000A
:1026D00000000000000000000000000000000000FA
:1026E00000000000000000000000000000000000EA
:1026F00000000000000000000000000000000000DA
:1027000000000000000000000000000000000000C9
:1027100000000000000000000000000000000000B9
:082720000000000000000000B1
:10272800000000000800002000000000E426000867
:1027380004270008C426000800000000000000006C
:102748000000000000000000000000000000000081
:102758000000000000000000000000000000000071
:102768000000000000000000000000000000000061
:102778000000000000000000000000000000000051
:102788000000000000000000E50000082507000820
:08279800BD190008C100000892
:0400000508000DF5ED
:00000001FF
